:100000000C942A000C9447000C9447000C94470071
:100010000C9447000C9447000C9447000C94470044
:100020000C9447000C9447000C9447000C94470034
:100030000C9447000C9447000C9447000C94470024
:100040000C9447000C9447000C9447000C94470014
:100050000C94470011241FBECFE5D8E0DEBFCDBF12
:1000600010E0A0E6B0E0ECE4F9E002C005900D92EB
:10007000AC3CB107D9F710E0ACECB0E001C01D9288
:10008000AC3CB107E1F70E9456020C94A4040C9416
:10009000000088BB84E085BB83EC99E00197F1F711
:1000A00000C0000015BA83EC99E00197F1F700C099
:1000B000000008959C01C89916C087EF9FEF821B2E
:1000C000930B26B537B5280F391F3BBD2ABD2FE945
:1000D00036E841E0215030404040E1F700C00000E8
:1000E0000997C89BEECF86B597B52AB53BB5821B5D
:1000F000930B0895C99915C0909581959F4F26B58A
:1001000037B5280F391F3BBD2ABD2FE936E841E03E
:10011000215030404040E1F700C000000996C99BE3
:10012000EECF86B597B52AB53BB5821B930B0895E4
:10013000CF93DF93EC018AE890E00E94490087EAC0
:1001400091E60197F1F700C0000080E690E00E9480
:100150003D02A7EAB1E61197F1F700C0000086B5AD
:1001600097B58C1B9D0B9BBD8ABD8FE996E8A1E0DE
:1001700081509040A040E1F700C0000086B597B5DF
:100180002AB53BB5821B930BDF91CF9108950F9356
:100190001F939C0105E08D3D900734F18C5D9540E7
:1001A00069E070E00E947D04161617060CF042C04C
:1001B00089E090E0821B930B41E050E026B537B513
:1001C000280F391F3BBD2ABD0FE916E821E0015079
:1001D00010402040E1F700C000004F5F5F4F0996DC
:1001E000641775075CF726C08CED95E0821B930BB6
:1001F00069E070E00E947D0416161706DCF487EFB4
:100200009FEF821B930B41E050E026B537B5280FD6
:10021000391F3BBD2ABD0FE916E821E0015010400F
:100220002040E1F700C000004F5F5F4F099764175F
:1002300075075CF786B597B52AB53BB5821B930B5E
:100240001F910F9108959C01909ACA9917C084EF4D
:100250009FEF821B930B909A26B537B5280F391F55
:100260003BBD2ABD2FE936E841E0215030404040F7
:10027000E1F700C000000C97CA9BEDCF86B597B59B
:100280002AB53BB5821B930B0895909ACB9915C064
:10029000909581959F4F26B537B5280F391F3BBDE7
:1002A0002ABD2FE936E841E0215030404040E1F7D7
:1002B00000C000000C96CB9BEECF86B597B52AB553
:1002C0003BB5821B930B0895CF93DF93EC01909A7B
:1002D0008AE890E00E94490087EA91E60197F1F7E9
:1002E00000C0000080E690E00E943D02A7EAB1E66F
:1002F0001197F1F700C0000086B597B58C1B9D0BD8
:100300009BBD8ABD8FE996E8A1E081509040A04056
:10031000E1F700C0000086B597B52AB53BB5821B52
:10032000930BDF91CF9108950F931F939C01909AA7
:1003300005E08D3D900734F18C5D95406CE070E0F8
:100340000E947D04161617060CF042C08CE090E067
:10035000821B930B41E050E026B537B5280F391FBB
:100360003BBD2ABD0FE916E821E0015010402040B6
:10037000E1F700C000004F5F5F4F0C9664177507F0
:100380005CF726C08CED95E0821B930B6CE070E06F
:100390000E947D0416161706DCF484EF9FEF821B83
:1003A000930B41E050E026B537B5280F391F3BBD10
:1003B0002ABD0FE916E821E0015010402040E1F786
:1003C00000C000004F5F5F4F0C97641775075CF724
:1003D00086B597B52AB53BB5821B930B1F910F913C
:1003E00008950F931F93CF93DF93C9E4D0E081E08A
:1003F00090E0FE01099587EA91E60197F1F700C0C8
:1004000000000DE312E084E690E0F801099587EA28
:1004100091E60197F1F700C0000080EC90E0FE014A
:10042000099587EA91E60197F1F700C000008EE692
:1004300090E0F801099587EA91E60197F1F700C08D
:100440000000CC9903C0939ACC9BFDCFDF91CF9154
:100450001F910F91089588BB85E085BB83EC99E0DF
:100460000197F1F700C0000081E085BB83EC99E0C3
:100470000197F1F700C000000895CF93DF93EC01DE
:100480008881882331F021960E942B02899188234C
:10049000D9F7DF91CF91089588E30E9449008EE05B
:1004A0000E94490081E00E944900089581B3896259
:1004B00081BB8AB3807E8ABB8BB38F618BBB8FEF8E
:1004C00087BB84BB8FB5826C8FBD8EB589618EBDB5
:1004D0008FE19EE497BD86BD86B597B58C5D95404E
:1004E0009BBD8ABD0E944C0280E80E94490084E7BF
:1004F00090E00E943D0287EA91E60197F1F700C083
:1005000000008BE80E9449008FE790E00E943D02C6
:10051000A7EAB1E61197F1F700C000008CE80E944D
:10052000490080E690E00E943D0287EA91E601974B
:10053000F1F700C0000080EC0E94490081E890E0E3
:100540000E943D028FE39DE0A3E081509040A040D7
:10055000E1F700C0000081E00E944900A7EAB1E68F
:100560001197F1F700C0000080E80E9449008CE874
:1005700090E00E943D0287EA91E60197F1F700C002
:1005800000008AE80E94490087E990E00E943D024D
:10059000A7EAB1E61197F1F700C0000080EC0E94D5
:1005A00049008CE990E00E943D0287EA91E60197BC
:1005B000F1F700C0000085EC0E94490082EA90E05B
:1005C0000E943D02A7EAB1E61197F1F700C00000D2
:1005D0008BEC0E94490088EA90E00E943D0287EA85
:1005E00091E60197F1F700C00000CFEAD0E000E605
:1005F00010E00F2EF8EBEF2EF0E0FF2EF02D0F2E77
:10060000F0ECCF2EF0E0DF2EF02DC89938C081E05D
:100610000E944900A7EAB1E61197F1F700C0000077
:10062000CE010E943D0287EA91E60197F1F700C0F2
:1006300000008AE80E944900A7EAB1E61197F1F7A5
:1006400000C00000C8010E943D0287EA91E60197C0
:10065000F1F700C000008091C6009091C7000E9491
:100660005A009093CB008093CA008FE996E8A1E0EE
:1006700081509040A040E1F700C0000039C0C99906
:1006800037C081E00E944900A7EAB1E61197F1F76F
:1006900000C00000CE010E943D0287EA91E601976A
:1006A000F1F700C000008AE80E944900A7EAB1E61D
:1006B0001197F1F700C00000C8010E943D0287EACF
:1006C00091E60197F1F700C000008091C60090917B
:1006D000C7000E947A009093CB008093CA008FE9F4
:1006E00096E8A1E081509040A040E1F700C00000F2
:1006F000CA9939C081E00E944900A7EAB1E6119782
:10070000F1F700C00000CE010E943D0287EA91E6A9
:100710000197F1F700C000008AE80E944900A7EAAB
:10072000B1E61197F1F700C00000C8010E943D0238
:1007300087EA91E60197F1F700C000008091C400BC
:100740009091C5000E9423019093C9008093C80036
:100750008FE996E8A1E081509040A040E1F700C009
:1007600000009098B9C0CB9939C081E00E9449003F
:10077000A7EAB1E61197F1F700C00000CE010E9490
:100780003D0287EA91E60197F1F700C000008AE890
:100790000E944900A7EAB1E61197F1F700C00000F6
:1007A000C8010E943D0287EA91E60197F1F700C077
:1007B00000008091C4009091C5000E944501909373
:1007C000C9008093C8008FE996E8A1E0815090406D
:1007D000A040E1F700C0000090987EC0CC9955C0C1
:1007E0008091C6009091C7000E94C7009093CB00F3
:1007F0008093CA008FE996E8A1E081509040A04024
:10080000E1F700C000008091C4009091C5000E94F3
:1008100094019093C9008093C8008FE996E8A1E005
:1008200081509040A040E1F700C0000090980E94E5
:10083000F101A7EAB1E61197F1F700C00000939823
:1008400081E00E94490087EA91E60197F1F700C034
:100850000000C7010E943D02A7EAB1E61197F1F737
:1008600000C0000080EC0E94490087EA91E60197F1
:10087000F1F700C00000C6010E943D02A7EAB1E600
:100880001197F1F700C0000027C08091C600909139
:10089000C7000E9498009093CB008093CA008FE914
:1008A00096E8A1E081509040A040E1F700C0000030
:1008B0008091C4009091C5000E9464019093C9008A
:1008C0008093C8008FE996E8A1E081509040A04055
:1008D000E1F700C0000090988091CA009091CB0091
:1008E0009093C7008093C6008091C8009091C90082
:1008F0009093C5008093C40088CE97FB092E0726ED
:100900000AD077FD04D00CD006D000201AF47095E0
:1009100061957F4F0895F6F7909581959F4F0895C3
:10092000AA1BBB1B51E107C0AA1FBB1FA617B70715
:1009300010F0A61BB70B881F991F5A95A9F7809531
:0C0940009095BC01CD010895F894FFCF04
:10094C002E2E2E004C4544204F4E2E2E2E004E693E
:10095C006768740050726F6A656374204F6E003A5A
:10096C0000534F4C415220545245450050726F6A0F
:10097C00656374206279002E2E2E2E004172756EE6
:10098C002C00426875702C004D6F6869742C004304
:10099C0068617267696E67004C4544204F4646009B
:0C09AC0044617900DC05DC05DC05DC059D
:00000001FF
